{
  "contractName": "Message",
  "abi": [
    {
      "constant": false,
      "inputs": [
        {
          "internalType": "address",
          "name": "re",
          "type": "address"
        },
        {
          "internalType": "address",
          "name": "sender",
          "type": "address"
        },
        {
          "internalType": "uint256",
          "name": "contractID",
          "type": "uint256"
        },
        {
          "internalType": "string",
          "name": "content",
          "type": "string"
        },
        {
          "internalType": "string",
          "name": "class",
          "type": "string"
        }
      ],
      "name": "create",
      "outputs": [],
      "payable": false,
      "stateMutability": "nonpayable",
      "type": "function"
    },
    {
      "constant": true,
      "inputs": [
        {
          "internalType": "uint256",
          "name": "i",
          "type": "uint256"
        }
      ],
      "name": "getMessage",
      "outputs": [
        {
          "internalType": "address",
          "name": "",
          "type": "address"
        },
        {
          "internalType": "address",
          "name": "",
          "type": "address"
        },
        {
          "internalType": "uint256",
          "name": "",
          "type": "uint256"
        },
        {
          "internalType": "string",
          "name": "",
          "type": "string"
        },
        {
          "internalType": "string",
          "name": "",
          "type": "string"
        }
      ],
      "payable": false,
      "stateMutability": "view",
      "type": "function"
    },
    {
      "constant": true,
      "inputs": [],
      "name": "getMessageLength",
      "outputs": [
        {
          "internalType": "uint256",
          "name": "",
          "type": "uint256"
        }
      ],
      "payable": false,
      "stateMutability": "view",
      "type": "function"
    },
    {
      "constant": false,
      "inputs": [
        {
          "internalType": "uint256",
          "name": "number",
          "type": "uint256"
        },
        {
          "internalType": "int256",
          "name": "sign",
          "type": "int256"
        }
      ],
      "name": "setMessage",
      "outputs": [],
      "payable": false,
      "stateMutability": "nonpayable",
      "type": "function"
    }
  ],
  "bytecode": "0x608060405234801561001057600080fd5b50610ade806100206000396000f3fe608060405234801561001057600080fd5b506004361061004c5760003560e01c80630c352e65146100515780631c9ef951146101ed57806386f79edb14610225578063f5701ede146103a5575b600080fd5b6101eb600480360360a081101561006757600080fd5b81019080803573ffffffffffffffffffffffffffffffffffffffff169060200190929190803573ffffffffffffffffffffffffffffffffffffffff16906020019092919080359060200190929190803590602001906401000000008111156100ce57600080fd5b8201836020820111156100e057600080fd5b8035906020019184600183028401116401000000008311171561010257600080fd5b91908080601f016020809104026020016040519081016040528093929190818152602001838380828437600081840152601f19601f8201169050808301925050505050505091929192908035906020019064010000000081111561016557600080fd5b82018360208201111561017757600080fd5b8035906020019184600183028401116401000000008311171561019957600080fd5b91908080601f016020809104026020016040519081016040528093929190818152602001838380828437600081840152601f19601f8201169050808301925050505050505091929192905050506103c3565b005b6102236004803603604081101561020357600080fd5b8101908080359060200190929190803590602001909291905050506105bd565b005b6102516004803603602081101561023b57600080fd5b81019080803590602001909291905050506106a0565b604051808673ffffffffffffffffffffffffffffffffffffffff1673ffffffffffffffffffffffffffffffffffffffff1681526020018573ffffffffffffffffffffffffffffffffffffffff1673ffffffffffffffffffffffffffffffffffffffff1681526020018481526020018060200180602001838103835285818151815260200191508051906020019080838360005b838110156102ff5780820151818401526020810190506102e4565b50505050905090810190601f16801561032c5780820380516001836020036101000a031916815260200191505b50838103825284818151815260200191508051906020019080838360005b8381101561036557808201518184015260208101905061034a565b50505050905090810190601f1680156103925780820380516001836020036101000a031916815260200191505b5097505050505050505060405180910390f35b6103ad610916565b6040518082815260200191505060405180910390f35b6103cb610922565b84816000019073ffffffffffffffffffffffffffffffffffffffff16908173ffffffffffffffffffffffffffffffffffffffff168152505085816020019073ffffffffffffffffffffffffffffffffffffffff16908173ffffffffffffffffffffffffffffffffffffffff1681525050838160400181815250508281606001819052508181608001819052506040518060400160405280600981526020017fe5be85e5a484e7908600000000000000000000000000000000000000000000008152508160a001819052506000819080600181540180825580915050906001820390600052602060002090600602016000909192909190915060008201518160000160006101000a81548173ffffffffffffffffffffffffffffffffffffffff021916908373ffffffffffffffffffffffffffffffffffffffff16021790555060208201518160010160006101000a81548173ffffffffffffffffffffffffffffffffffffffff021916908373ffffffffffffffffffffffffffffffffffffffff160217905550604082015181600201556060820151816003019080519060200190610577929190610984565b506080820151816004019080519060200190610594929190610984565b5060a08201518160050190805190602001906105b1929190610984565b50505050505050505050565b6001811415610633576040518060400160405280601181526020017fe5b7b2e5a484e7908628e5908ce6848f290000000000000000000000000000008152506000838154811061060957fe5b9060005260206000209060060201600501908051906020019061062d929190610a04565b5061069c565b6040518060400160405280601181526020017fe5b7b2e5a484e7908628e68b92e7bb9d290000000000000000000000000000008152506000838154811061067657fe5b9060005260206000209060060201600501908051906020019061069a929190610a04565b505b5050565b60008060006060806000805490508610156108d557600086815481106106c257fe5b906000526020600020906006020160000160009054906101000a900473ffffffffffffffffffffffffffffffffffffffff166000878154811061070157fe5b906000526020600020906006020160010160009054906101000a900473ffffffffffffffffffffffffffffffffffffffff166000888154811061074057fe5b9060005260206000209060060201600201546000898154811061075f57fe5b906000526020600020906006020160030160008a8154811061077d57fe5b9060005260206000209060060201600501818054600181600116156101000203166002900480601f0160208091040260200160405190810160405280929190818152602001828054600181600116156101000203166002900480156108235780601f106107f857610100808354040283529160200191610823565b820191906000526020600020905b81548152906001019060200180831161080657829003601f168201915b50505050509150808054600181600116156101000203166002900480601f0160208091040260200160405190810160405280929190818152602001828054600181600116156101000203166002900480156108bf5780601f10610894576101008083540402835291602001916108bf565b820191906000526020600020905b8154815290600101906020018083116108a257829003601f168201915b505050505090509450945094509450945061090d565b333360008292508191508090506040518060200160405280600081525060405180602001604052806000815250945094509450945094505b91939590929450565b60008080549050905090565b6040518060c00160405280600073ffffffffffffffffffffffffffffffffffffffff168152602001600073ffffffffffffffffffffffffffffffffffffffff168152602001600081526020016060815260200160608152602001606081525090565b828054600181600116156101000203166002900490600052602060002090601f016020900481019282601f106109c557805160ff19168380011785556109f3565b828001600101855582156109f3579182015b828111156109f25782518255916020019190600101906109d7565b5b509050610a009190610a84565b5090565b828054600181600116156101000203166002900490600052602060002090601f016020900481019282601f10610a4557805160ff1916838001178555610a73565b82800160010185558215610a73579182015b82811115610a72578251825591602001919060010190610a57565b5b509050610a809190610a84565b5090565b610aa691905b80821115610aa2576000816000905550600101610a8a565b5090565b9056fea265627a7a723158208e4df60251501002f80ebd436c17a1454e5f079ddb5d695d047e0d08ebf175f764736f6c63430005100032",
  "source": "pragma solidity ^0.5.16;\r\n\r\ncontract Message\r\n{\r\n    struct Letter\r\n    {\r\n\r\n        address send;\r\n        address re;\r\n        uint contractID;\r\n        string content;\r\n        string class;\r\n        string state;\r\n    }\r\n    Letter[] le;\r\n    function create(address re,address sender,uint   contractID,string  memory content,string  memory class) public\r\n        {\r\n\r\n            Letter  memory tempMessage;\r\n            tempMessage.send=sender;\r\n            tempMessage.re=re;\r\n            tempMessage.contractID=contractID;\r\n            tempMessage.content=content;\r\n            tempMessage.class=class;\r\n            tempMessage.state=\"待处理\";\r\n            le.push(tempMessage);\r\n\r\n        }\r\n    function getMessage(uint i) public view returns(address,address,uint,string memory,string memory  )\r\n        {\r\n\r\n            if(i<le.length)\r\n               return(le[i].send,le[i].re,le[i].contractID,le[i].content,le[i].state);\r\n            else return(msg.sender,msg.sender,0,\"\",\"\");\r\n\r\n\r\n\r\n\r\n        }\r\n    function getMessageLength() public view returns(uint)\r\n    {\r\n    return le.length;\r\n    }\r\n    function setMessage(uint number,int sign) public\r\n    {\r\n\r\n        if(sign==1)\r\n        {\r\n        le[number].state=\"已处理(同意)\";\r\n        }\r\n        else\r\n        {\r\n        le[number].state=\"已处理(拒绝)\";\r\n        }\r\n    }\r\n\r\n\r\n}\r\n",
  "sourcePath": "E:\\Vote\\contracts\\Message.sol",
  "compiler": {
    "name": "solc",
    "version": "0.5.16+commit.9c3226ce.Emscripten.clang"
  },
  "schemaVersion": "3.3.2",
  "updatedAt": "2021-05-13T07:36:28.687Z",
  "networkType": "ethereum",
  "devdoc": {
    "methods": {}
  },
  "userdoc": {
    "methods": {}
  }
}