{
  "contractName": "Split",
  "abi": [
    {
      "constant": false,
      "inputs": [
        {
          "internalType": "string",
          "name": "items",
          "type": "string"
        },
        {
          "internalType": "uint256",
          "name": "number",
          "type": "uint256"
        }
      ],
      "name": "split",
      "outputs": [
        {
          "internalType": "string",
          "name": "",
          "type": "string"
        },
        {
          "internalType": "uint256",
          "name": "",
          "type": "uint256"
        }
      ],
      "payable": false,
      "stateMutability": "nonpayable",
      "type": "function"
    }
  ],
  "bytecode": "0x608060405234801561001057600080fd5b506105ac806100206000396000f3fe608060405234801561001057600080fd5b506004361061002b5760003560e01c806325ff7a9814610030575b600080fd5b6100f36004803603604081101561004657600080fd5b810190808035906020019064010000000081111561006357600080fd5b82018360208201111561007557600080fd5b8035906020019184600183028401116401000000008311171561009757600080fd5b91908080601f016020809104026020016040519081016040528093929190818152602001838380828437600081840152601f19601f82011690508083019250505050505050919291929080359060200190929190505050610175565b6040518080602001838152602001828103825284818151815260200191508051906020019080838360005b8381101561013957808201518184015260208101905061011e565b50505050905090810190601f1680156101665780820380516001836020036101000a031916815260200191505b50935050505060405180910390f35b60606000606084905060606040518060400160405280600181526020017f5b00000000000000000000000000000000000000000000000000000000000000815250905060606040518060400160405280600181526020017f5d00000000000000000000000000000000000000000000000000000000000000815250905060008690505b87518110156104c85760008061020e919061050a565b8260008151811061021b57fe5b602001015160f81c60f81b7effffffffffffffffffffffffffffffffffffffffffffffffffffffffffffff191684828151811061025457fe5b602001015160f81c60f81b7effffffffffffffffffffffffffffffffffffffffffffffffffffffffffffff191614156104ae5760008090505b88518210156104ac578180600101925050885182106102ab576104ac565b826000815181106102b857fe5b602001015160f81c60f81b7effffffffffffffffffffffffffffffffffffffffffffffffffffffffffffff19168583815181106102f157fe5b602001015160f81c60f81b7effffffffffffffffffffffffffffffffffffffffffffffffffffffffffffff191614156103d457600060018301818054600181600116156101000203166002900480601f0160208091040260200160405190810160405280929190818152602001828054600181600116156101000203166002900480156103bf5780601f10610394576101008083540402835291602001916103bf565b820191906000526020600020905b8154815290600101906020018083116103a257829003601f168201915b50505050509150965096505050505050610503565b60008583815181106103e257fe5b602001015160f81c60f81b90808054603f811680603e811461041e5760028301845560018316610410578192505b600160028404019350610438565b83600052602060002060ff19841681556041855560209450505b505050906001820381546001161561045f5790600052602060002090602091828204019190065b90919290919091601f036101000a81548160ff021916907f01000000000000000000000000000000000000000000000000000000000000008404021790555050808060010191505061028d565b505b875181106104bb576104c8565b80806001019150506101f8565b507fffffffffffffffffffffffffffffffffffffffffffffffffffffffffffffffff6040518060200160405280600081525090945094505050505b9250929050565b50805460018160011615610100020316600290046000825580601f10610530575061054f565b601f01602090049060005260206000209081019061054e9190610552565b5b50565b61057491905b80821115610570576000816000905550600101610558565b5090565b9056fea265627a7a723158207e088cfecc93be59db9d80953f138208fae0b016827895787c5d7c8345e98a4164736f6c63430005100032",
  "source": "pragma solidity ^0.5.16;\r\n\r\ncontract Split\r\n{\r\n    bytes   item;\r\n\r\n    function split(string memory items,uint number)  public returns(string memory,uint)\r\n\r\n    {\r\n\r\n        bytes memory aItem=bytes(items);\r\n        bytes memory sign1=\"[\";\r\n        bytes memory sign2=\"]\";\r\n        for(uint i=number;i<bytes(items).length;i++)\r\n        {\r\n            delete item;\r\n            if(aItem[i]==sign1[0])\r\n            {\r\n                for(uint j=0;i<bytes(items).length;j++)\r\n                {\r\n                    i++;\r\n                    if(i>=bytes(items).length) break;\r\n                    if(aItem[i]==sign2[0])\r\n                        return(string(item),i+1);\r\n                    item.push(aItem[i]);\r\n                }\r\n            }\r\n            if(i>=bytes(items).length) break;\r\n\r\n        }\r\n        return(\"\",uint(-1));\r\n    }\r\n\r\n\r\n}\r\n",
  "sourcePath": "E:\\Vote\\contracts\\Split.sol",
  "compiler": {
    "name": "solc",
    "version": "0.5.16+commit.9c3226ce.Emscripten.clang"
  },
  "schemaVersion": "3.3.2",
  "updatedAt": "2021-05-13T07:37:03.399Z",
  "networkType": "ethereum",
  "devdoc": {
    "methods": {}
  },
  "userdoc": {
    "methods": {}
  }
}