{
  "contractName": "Vote",
  "abi": [
    {
      "inputs": [],
      "payable": false,
      "stateMutability": "nonpayable",
      "type": "constructor"
    },
    {
      "constant": true,
      "inputs": [],
      "name": "getActivitylength",
      "outputs": [
        {
          "internalType": "uint256",
          "name": "",
          "type": "uint256"
        }
      ],
      "payable": false,
      "stateMutability": "view",
      "type": "function"
    },
    {
      "constant": true,
      "inputs": [
        {
          "internalType": "uint256",
          "name": "id",
          "type": "uint256"
        }
      ],
      "name": "getActivityItemlength",
      "outputs": [
        {
          "internalType": "uint256",
          "name": "",
          "type": "uint256"
        }
      ],
      "payable": false,
      "stateMutability": "view",
      "type": "function"
    },
    {
      "constant": false,
      "inputs": [
        {
          "internalType": "address",
          "name": "userID",
          "type": "address"
        },
        {
          "internalType": "uint256",
          "name": "activityID",
          "type": "uint256"
        }
      ],
      "name": "grantPower",
      "outputs": [
        {
          "internalType": "int256",
          "name": "sign",
          "type": "int256"
        }
      ],
      "payable": false,
      "stateMutability": "nonpayable",
      "type": "function"
    },
    {
      "constant": false,
      "inputs": [
        {
          "internalType": "string",
          "name": "content",
          "type": "string"
        },
        {
          "internalType": "int256",
          "name": "mode",
          "type": "int256"
        },
        {
          "internalType": "string",
          "name": "items",
          "type": "string"
        }
      ],
      "name": "createActivity",
      "outputs": [
        {
          "internalType": "uint256",
          "name": "",
          "type": "uint256"
        }
      ],
      "payable": false,
      "stateMutability": "nonpayable",
      "type": "function"
    },
    {
      "constant": false,
      "inputs": [
        {
          "internalType": "uint256",
          "name": "activityID",
          "type": "uint256"
        },
        {
          "internalType": "uint256",
          "name": "item",
          "type": "uint256"
        }
      ],
      "name": "vote",
      "outputs": [],
      "payable": false,
      "stateMutability": "nonpayable",
      "type": "function"
    },
    {
      "constant": true,
      "inputs": [
        {
          "internalType": "uint256",
          "name": "activityID",
          "type": "uint256"
        },
        {
          "internalType": "address",
          "name": "userID",
          "type": "address"
        }
      ],
      "name": "searchclass",
      "outputs": [
        {
          "internalType": "int256",
          "name": "",
          "type": "int256"
        }
      ],
      "payable": false,
      "stateMutability": "view",
      "type": "function"
    },
    {
      "constant": true,
      "inputs": [
        {
          "internalType": "uint256",
          "name": "activityID",
          "type": "uint256"
        }
      ],
      "name": "searchAll",
      "outputs": [
        {
          "internalType": "uint256",
          "name": "",
          "type": "uint256"
        },
        {
          "internalType": "string",
          "name": "",
          "type": "string"
        },
        {
          "internalType": "address",
          "name": "",
          "type": "address"
        },
        {
          "internalType": "int256",
          "name": "",
          "type": "int256"
        }
      ],
      "payable": false,
      "stateMutability": "view",
      "type": "function"
    },
    {
      "constant": true,
      "inputs": [
        {
          "internalType": "uint256",
          "name": "activityID",
          "type": "uint256"
        },
        {
          "internalType": "uint256",
          "name": "xu",
          "type": "uint256"
        }
      ],
      "name": "searchItem",
      "outputs": [
        {
          "internalType": "uint256",
          "name": "",
          "type": "uint256"
        },
        {
          "internalType": "string",
          "name": "",
          "type": "string"
        },
        {
          "internalType": "uint256",
          "name": "",
          "type": "uint256"
        }
      ],
      "payable": false,
      "stateMutability": "view",
      "type": "function"
    },
    {
      "constant": false,
      "inputs": [
        {
          "internalType": "address",
          "name": "re",
          "type": "address"
        },
        {
          "internalType": "address",
          "name": "sender",
          "type": "address"
        },
        {
          "internalType": "uint256",
          "name": "contractID",
          "type": "uint256"
        },
        {
          "internalType": "string",
          "name": "content",
          "type": "string"
        },
        {
          "internalType": "string",
          "name": "class",
          "type": "string"
        }
      ],
      "name": "create",
      "outputs": [],
      "payable": false,
      "stateMutability": "nonpayable",
      "type": "function"
    },
    {
      "constant": true,
      "inputs": [
        {
          "internalType": "uint256",
          "name": "i",
          "type": "uint256"
        }
      ],
      "name": "getMessage",
      "outputs": [
        {
          "internalType": "address",
          "name": "",
          "type": "address"
        },
        {
          "internalType": "address",
          "name": "",
          "type": "address"
        },
        {
          "internalType": "uint256",
          "name": "",
          "type": "uint256"
        },
        {
          "internalType": "string",
          "name": "",
          "type": "string"
        },
        {
          "internalType": "string",
          "name": "",
          "type": "string"
        }
      ],
      "payable": false,
      "stateMutability": "view",
      "type": "function"
    },
    {
      "constant": true,
      "inputs": [],
      "name": "getMessageLength",
      "outputs": [
        {
          "internalType": "uint256",
          "name": "",
          "type": "uint256"
        }
      ],
      "payable": false,
      "stateMutability": "view",
      "type": "function"
    },
    {
      "constant": false,
      "inputs": [
        {
          "internalType": "uint256",
          "name": "number",
          "type": "uint256"
        },
        {
          "internalType": "int256",
          "name": "sign",
          "type": "int256"
        }
      ],
      "name": "setMessage",
      "outputs": [],
      "payable": false,
      "stateMutability": "nonpayable",
      "type": "function"
    }
  ],
  "bytecode": "0x608060405234801561001057600080fd5b5060405161001d9061007f565b604051809103906000f080158015610039573d6000803e3d6000fd5b50600360006101000a81548173ffffffffffffffffffffffffffffffffffffffff021916908373ffffffffffffffffffffffffffffffffffffffff16021790555061008c565b610afe8061235c83390190565b6122c18061009b6000396000f3fe608060405234801561001057600080fd5b50600436106100b45760003560e01c8063946aee7d11610071578063946aee7d1461054c578063b384abef1461058e578063cb9860a9146105c6578063d7479ff614610736578063e000dc7e14610798578063f5701ede14610880576100b4565b80630c352e65146100b95780631c9ef9511461025557806323fc90991461028d578063665f7ffe1461034c578063775fba8a146103ae57806386f79edb146103cc575b600080fd5b610253600480360360a08110156100cf57600080fd5b81019080803573ffffffffffffffffffffffffffffffffffffffff169060200190929190803573ffffffffffffffffffffffffffffffffffffffff169060200190929190803590602001909291908035906020019064010000000081111561013657600080fd5b82018360208201111561014857600080fd5b8035906020019184600183028401116401000000008311171561016a57600080fd5b91908080601f016020809104026020016040519081016040528093929190818152602001838380828437600081840152601f19601f820116905080830192505050505050509192919290803590602001906401000000008111156101cd57600080fd5b8201836020820111156101df57600080fd5b8035906020019184600183028401116401000000008311171561020157600080fd5b91908080601f016020809104026020016040519081016040528093929190818152602001838380828437600081840152601f19601f82011690508083019250505050505050919291929050505061089e565b005b61028b6004803603604081101561026b57600080fd5b810190808035906020019092919080359060200190929190505050610a74565b005b6102c3600480360360408110156102a357600080fd5b810190808035906020019092919080359060200190929190505050610b0d565b6040518084815260200180602001838152602001828103825284818151815260200191508051906020019080838360005b8381101561030f5780820151818401526020810190506102f4565b50505050905090810190601f16801561033c5780820380516001836020036101000a031916815260200191505b5094505050505060405180910390f35b6103986004803603604081101561036257600080fd5b81019080803573ffffffffffffffffffffffffffffffffffffffff16906020019092919080359060200190929190505050610c86565b6040518082815260200191505060405180910390f35b6103b6610de9565b6040518082815260200191505060405180910390f35b6103f8600480360360208110156103e257600080fd5b8101908080359060200190929190505050610df5565b604051808673ffffffffffffffffffffffffffffffffffffffff1673ffffffffffffffffffffffffffffffffffffffff1681526020018573ffffffffffffffffffffffffffffffffffffffff1673ffffffffffffffffffffffffffffffffffffffff1681526020018481526020018060200180602001838103835285818151815260200191508051906020019080838360005b838110156104a657808201518184015260208101905061048b565b50505050905090810190601f1680156104d35780820380516001836020036101000a031916815260200191505b50838103825284818151815260200191508051906020019080838360005b8381101561050c5780820151818401526020810190506104f1565b50505050905090810190601f1680156105395780820380516001836020036101000a031916815260200191505b5097505050505050505060405180910390f35b6105786004803603602081101561056257600080fd5b8101908080359060200190929190505050611051565b6040518082815260200191505060405180910390f35b6105c4600480360360408110156105a457600080fd5b810190808035906020019092919080359060200190929190505050611078565b005b610720600480360360608110156105dc57600080fd5b81019080803590602001906401000000008111156105f957600080fd5b82018360208201111561060b57600080fd5b8035906020019184600183028401116401000000008311171561062d57600080fd5b91908080601f016020809104026020016040519081016040528093929190818152602001838380828437600081840152601f19601f820116905080830192505050505050509192919290803590602001909291908035906020019064010000000081111561069a57600080fd5b8201836020820111156106ac57600080fd5b803590602001918460018302840111640100000000831117156106ce57600080fd5b91908080601f016020809104026020016040519081016040528093929190818152602001838380828437600081840152601f19601f8201169050808301925050505050505091929192905050506110c9565b6040518082815260200191505060405180910390f35b6107826004803603604081101561074c57600080fd5b8101908080359060200190929190803573ffffffffffffffffffffffffffffffffffffffff169060200190929190505050611466565b6040518082815260200191505060405180910390f35b6107c4600480360360208110156107ae57600080fd5b810190808035906020019092919050505061155c565b60405180858152602001806020018473ffffffffffffffffffffffffffffffffffffffff1673ffffffffffffffffffffffffffffffffffffffff168152602001838152602001828103825285818151815260200191508051906020019080838360005b83811015610842578082015181840152602081019050610827565b50505050905090810190601f16801561086f5780820380516001836020036101000a031916815260200191505b509550505050505060405180910390f35b6108886116e4565b6040518082815260200191505060405180910390f35b600360009054906101000a900473ffffffffffffffffffffffffffffffffffffffff1673ffffffffffffffffffffffffffffffffffffffff16630c352e6586868686866040518663ffffffff1660e01b8152600401808673ffffffffffffffffffffffffffffffffffffffff1673ffffffffffffffffffffffffffffffffffffffff1681526020018573ffffffffffffffffffffffffffffffffffffffff1673ffffffffffffffffffffffffffffffffffffffff1681526020018481526020018060200180602001838103835285818151815260200191508051906020019080838360005b8381101561099e578082015181840152602081019050610983565b50505050905090810190601f1680156109cb5780820380516001836020036101000a031916815260200191505b50838103825284818151815260200191508051906020019080838360005b83811015610a045780820151818401526020810190506109e9565b50505050905090810190601f168015610a315780820380516001836020036101000a031916815260200191505b50975050505050505050600060405180830381600087803b158015610a5557600080fd5b505af1158015610a69573d6000803e3d6000fd5b505050505050505050565b600360009054906101000a900473ffffffffffffffffffffffffffffffffffffffff1673ffffffffffffffffffffffffffffffffffffffff16631c9ef95183836040518363ffffffff1660e01b81526004018083815260200182815260200192505050600060405180830381600087803b158015610af157600080fd5b505af1158015610b05573d6000803e3d6000fd5b505050505050565b6000606060008080549050851015610c5e5760008581548110610b2c57fe5b906000526020600020906006020160030160008581526020019081526020016000206000015460008681548110610b5f57fe5b9060005260206000209060060201600301600086815260200190815260200160002060010160008781548110610b9157fe5b9060005260206000209060060201600301600087815260200190815260200160002060020154818054600181600116156101000203166002900480601f016020809104026020016040519081016040528092919081815260200182805460018160011615610100020316600290048015610c4c5780601f10610c2157610100808354040283529160200191610c4c565b820191906000526020600020905b815481529060010190602001808311610c2f57829003601f168201915b50505050509150925092509250610c7f565b60008081915060405180602001604052806000815250908090509250925092505b9250925092565b60003373ffffffffffffffffffffffffffffffffffffffff1660008381548110610cac57fe5b906000526020600020906006020160020160009054906101000a900473ffffffffffffffffffffffffffffffffffffffff1673ffffffffffffffffffffffffffffffffffffffff161415610ddf576003610d068385611466565b1415610dde57610d14611b41565b8281602001818152505083816000019073ffffffffffffffffffffffffffffffffffffffff16908173ffffffffffffffffffffffffffffffffffffffff16815250506001819080600181540180825580915050906001820390600052602060002090600202016000909192909190915060008201518160000160006101000a81548173ffffffffffffffffffffffffffffffffffffffff021916908373ffffffffffffffffffffffffffffffffffffffff1602179055506020820151816001015550505060019150505b5b6000905092915050565b60008080549050905090565b6000806000606080600360009054906101000a900473ffffffffffffffffffffffffffffffffffffffff1673ffffffffffffffffffffffffffffffffffffffff166386f79edb876040518263ffffffff1660e01b81526004018082815260200191505060006040518083038186803b158015610e7057600080fd5b505afa158015610e84573d6000803e3d6000fd5b505050506040513d6000823e3d601f19601f8201168201806040525060a0811015610eae57600080fd5b8101908080519060200190929190805190602001909291908051906020019092919080516040519392919084640100000000821115610eec57600080fd5b83820191506020820185811115610f0257600080fd5b8251866001820283011164010000000082111715610f1f57600080fd5b8083526020830192505050908051906020019080838360005b83811015610f53578082015181840152602081019050610f38565b50505050905090810190601f168015610f805780820380516001836020036101000a031916815260200191505b5060405260200180516040519392919084640100000000821115610fa357600080fd5b83820191506020820185811115610fb957600080fd5b8251866001820283011164010000000082111715610fd657600080fd5b8083526020830192505050908051906020019080838360005b8381101561100a578082015181840152602081019050610fef565b50505050905090810190601f1680156110375780820380516001836020036101000a031916815260200191505b506040525050509450945094509450945091939590929450565b600080828154811061105f57fe5b9060005260206000209060060201600401549050919050565b6000828154811061108557fe5b90600052602060002090600602016003016000828152602001908152602001600020600201600081548092919060010191905055506110c533838361178e565b5050565b6000806040516110d890611b71565b604051809103906000f0801580156110f4573d6000803e3d6000fd5b5090506110ff611b7e565b6060600080905060008054905083600001818152505033836040019073ffffffffffffffffffffffffffffffffffffffff16908173ffffffffffffffffffffffffffffffffffffffff1681525050878360200181905250868360800181815250506000836060018181525050600083908060018154018082558091505090600182039060005260206000209060060201600090919290919091506000820151816000015560208201518160010190805190602001906111bf929190611bc3565b5060408201518160020160006101000a81548173ffffffffffffffffffffffffffffffffffffffff021916908373ffffffffffffffffffffffffffffffffffffffff16021790555060608201518160040155608082015181600501555050505b7fffffffffffffffffffffffffffffffffffffffffffffffffffffffffffffffff8114611454578373ffffffffffffffffffffffffffffffffffffffff166325ff7a9887836040518363ffffffff1660e01b81526004018080602001838152602001828103825284818151815260200191508051906020019080838360005b838110156112b957808201518184015260208101905061129e565b50505050905090810190601f1680156112e65780820380516001836020036101000a031916815260200191505b509350505050600060405180830381600087803b15801561130657600080fd5b505af115801561131a573d6000803e3d6000fd5b505050506040513d6000823e3d601f19601f82011682018060405250604081101561134457600080fd5b810190808051604051939291908464010000000082111561136457600080fd5b8382019150602082018581111561137a57600080fd5b825186600182028301116401000000008211171561139757600080fd5b8083526020830192505050908051906020019080838360005b838110156113cb5780820151818401526020810190506113b0565b50505050905090810190601f1680156113f85780820380516001836020036101000a031916815260200191505b506040526020018051906020019092919050505080925081935050507fffffffffffffffffffffffffffffffffffffffffffffffffffffffffffffffff81141561144157611454565b61144f836000015183611874565b61121f565b82600001519450505050509392505050565b6000807fffffffffffffffffffffffffffffffffffffffffffffffffffffffffffffffff9050600080549050841015611552578273ffffffffffffffffffffffffffffffffffffffff16600085815481106114bd57fe5b906000526020600020906006020160020160009054906101000a900473ffffffffffffffffffffffffffffffffffffffff1673ffffffffffffffffffffffffffffffffffffffff1614156115145760009050611551565b6001611520858561196c565b141561152f5760019050611550565b600161153b8585611a3f565b141561154a576002905061154f565b600390505b5b5b5b8091505092915050565b600060606000806000805490508510156116b4576000858154811061157d57fe5b9060005260206000209060060201600001546000868154811061159c57fe5b9060005260206000209060060201600101600087815481106115ba57fe5b906000526020600020906006020160020160009054906101000a900473ffffffffffffffffffffffffffffffffffffffff16600088815481106115f957fe5b906000526020600020906006020160050154828054600181600116156101000203166002900480601f0160208091040260200160405190810160405280929190818152602001828054600181600116156101000203166002900480156116a05780601f10611675576101008083540402835291602001916116a0565b820191906000526020600020905b81548152906001019060200180831161168357829003601f168201915b5050505050925093509350935093506116dd565b600133600082925060405180602001604052806000815250919081915080905093509350935093505b9193509193565b6000600360009054906101000a900473ffffffffffffffffffffffffffffffffffffffff1673ffffffffffffffffffffffffffffffffffffffff1663f5701ede6040518163ffffffff1660e01b815260040160206040518083038186803b15801561174e57600080fd5b505afa158015611762573d6000803e3d6000fd5b505050506040513d602081101561177857600080fd5b8101908080519060200190929190505050905090565b611796611c43565b8281602001818152505083816000019073ffffffffffffffffffffffffffffffffffffffff16908173ffffffffffffffffffffffffffffffffffffffff1681525050818160400181815250506002819080600181540180825580915050906001820390600052602060002090600302016000909192909190915060008201518160000160006101000a81548173ffffffffffffffffffffffffffffffffffffffff021916908373ffffffffffffffffffffffffffffffffffffffff160217905550602082015181600101556040820151816002015550505050505050565b61187c611c7a565b6000838154811061188957fe5b906000526020600020906006020160040154816000018181525050818160200181905250600081604001818152505080600084815481106118c657fe5b906000526020600020906006020160030160008086815481106118e557fe5b906000526020600020906006020160040154815260200190815260200160002060008201518160000155602082015181600101908051906020019061192b929190611bc3565b50604082015181600201559050506000838154811061194657fe5b906000526020600020906006020160040160008154809291906001019190505550505050565b600080600090505b600280549050811015611a3357836002828154811061198f57fe5b906000526020600020906003020160010154148015611a1757508273ffffffffffffffffffffffffffffffffffffffff16600282815481106119cd57fe5b906000526020600020906003020160000160009054906101000a900473ffffffffffffffffffffffffffffffffffffffff1673ffffffffffffffffffffffffffffffffffffffff16145b15611a26576001915050611a39565b8080600101915050611974565b50600090505b92915050565b60008060008481548110611a4f57fe5b9060005260206000209060060201600501541415611a705760019050611b3b565b60008090505b600180549050811015611b35578360018281548110611a9157fe5b906000526020600020906002020160010154148015611b1957508273ffffffffffffffffffffffffffffffffffffffff1660018281548110611acf57fe5b906000526020600020906002020160000160009054906101000a900473ffffffffffffffffffffffffffffffffffffffff1673ffffffffffffffffffffffffffffffffffffffff16145b15611b28576001915050611b3b565b8080600101915050611a76565b50600090505b92915050565b6040518060400160405280600073ffffffffffffffffffffffffffffffffffffffff168152602001600081525090565b6105cc80611cc183390190565b6040518060a001604052806000815260200160608152602001600073ffffffffffffffffffffffffffffffffffffffff16815260200160008152602001600081525090565b828054600181600116156101000203166002900490600052602060002090601f016020900481019282601f10611c0457805160ff1916838001178555611c32565b82800160010185558215611c32579182015b82811115611c31578251825591602001919060010190611c16565b5b509050611c3f9190611c9b565b5090565b6040518060600160405280600073ffffffffffffffffffffffffffffffffffffffff16815260200160008152602001600081525090565b60405180606001604052806000815260200160608152602001600081525090565b611cbd91905b80821115611cb9576000816000905550600101611ca1565b5090565b9056fe608060405234801561001057600080fd5b506105ac806100206000396000f3fe608060405234801561001057600080fd5b506004361061002b5760003560e01c806325ff7a9814610030575b600080fd5b6100f36004803603604081101561004657600080fd5b810190808035906020019064010000000081111561006357600080fd5b82018360208201111561007557600080fd5b8035906020019184600183028401116401000000008311171561009757600080fd5b91908080601f016020809104026020016040519081016040528093929190818152602001838380828437600081840152601f19601f82011690508083019250505050505050919291929080359060200190929190505050610175565b6040518080602001838152602001828103825284818151815260200191508051906020019080838360005b8381101561013957808201518184015260208101905061011e565b50505050905090810190601f1680156101665780820380516001836020036101000a031916815260200191505b50935050505060405180910390f35b60606000606084905060606040518060400160405280600181526020017f5b00000000000000000000000000000000000000000000000000000000000000815250905060606040518060400160405280600181526020017f5d00000000000000000000000000000000000000000000000000000000000000815250905060008690505b87518110156104c85760008061020e919061050a565b8260008151811061021b57fe5b602001015160f81c60f81b7effffffffffffffffffffffffffffffffffffffffffffffffffffffffffffff191684828151811061025457fe5b602001015160f81c60f81b7effffffffffffffffffffffffffffffffffffffffffffffffffffffffffffff191614156104ae5760008090505b88518210156104ac578180600101925050885182106102ab576104ac565b826000815181106102b857fe5b602001015160f81c60f81b7effffffffffffffffffffffffffffffffffffffffffffffffffffffffffffff19168583815181106102f157fe5b602001015160f81c60f81b7effffffffffffffffffffffffffffffffffffffffffffffffffffffffffffff191614156103d457600060018301818054600181600116156101000203166002900480601f0160208091040260200160405190810160405280929190818152602001828054600181600116156101000203166002900480156103bf5780601f10610394576101008083540402835291602001916103bf565b820191906000526020600020905b8154815290600101906020018083116103a257829003601f168201915b50505050509150965096505050505050610503565b60008583815181106103e257fe5b602001015160f81c60f81b90808054603f811680603e811461041e5760028301845560018316610410578192505b600160028404019350610438565b83600052602060002060ff19841681556041855560209450505b505050906001820381546001161561045f5790600052602060002090602091828204019190065b90919290919091601f036101000a81548160ff021916907f01000000000000000000000000000000000000000000000000000000000000008404021790555050808060010191505061028d565b505b875181106104bb576104c8565b80806001019150506101f8565b507fffffffffffffffffffffffffffffffffffffffffffffffffffffffffffffffff6040518060200160405280600081525090945094505050505b9250929050565b50805460018160011615610100020316600290046000825580601f10610530575061054f565b601f01602090049060005260206000209081019061054e9190610552565b5b50565b61057491905b80821115610570576000816000905550600101610558565b5090565b9056fea265627a7a723158207e088cfecc93be59db9d80953f138208fae0b016827895787c5d7c8345e98a4164736f6c63430005100032a265627a7a72315820696aff32c150ff52753c1f974ebd403160530b01b9688cfc72221300bf74918e64736f6c63430005100032608060405234801561001057600080fd5b50610ade806100206000396000f3fe608060405234801561001057600080fd5b506004361061004c5760003560e01c80630c352e65146100515780631c9ef951146101ed57806386f79edb14610225578063f5701ede146103a5575b600080fd5b6101eb600480360360a081101561006757600080fd5b81019080803573ffffffffffffffffffffffffffffffffffffffff169060200190929190803573ffffffffffffffffffffffffffffffffffffffff16906020019092919080359060200190929190803590602001906401000000008111156100ce57600080fd5b8201836020820111156100e057600080fd5b8035906020019184600183028401116401000000008311171561010257600080fd5b91908080601f016020809104026020016040519081016040528093929190818152602001838380828437600081840152601f19601f8201169050808301925050505050505091929192908035906020019064010000000081111561016557600080fd5b82018360208201111561017757600080fd5b8035906020019184600183028401116401000000008311171561019957600080fd5b91908080601f016020809104026020016040519081016040528093929190818152602001838380828437600081840152601f19601f8201169050808301925050505050505091929192905050506103c3565b005b6102236004803603604081101561020357600080fd5b8101908080359060200190929190803590602001909291905050506105bd565b005b6102516004803603602081101561023b57600080fd5b81019080803590602001909291905050506106a0565b604051808673ffffffffffffffffffffffffffffffffffffffff1673ffffffffffffffffffffffffffffffffffffffff1681526020018573ffffffffffffffffffffffffffffffffffffffff1673ffffffffffffffffffffffffffffffffffffffff1681526020018481526020018060200180602001838103835285818151815260200191508051906020019080838360005b838110156102ff5780820151818401526020810190506102e4565b50505050905090810190601f16801561032c5780820380516001836020036101000a031916815260200191505b50838103825284818151815260200191508051906020019080838360005b8381101561036557808201518184015260208101905061034a565b50505050905090810190601f1680156103925780820380516001836020036101000a031916815260200191505b5097505050505050505060405180910390f35b6103ad610916565b6040518082815260200191505060405180910390f35b6103cb610922565b84816000019073ffffffffffffffffffffffffffffffffffffffff16908173ffffffffffffffffffffffffffffffffffffffff168152505085816020019073ffffffffffffffffffffffffffffffffffffffff16908173ffffffffffffffffffffffffffffffffffffffff1681525050838160400181815250508281606001819052508181608001819052506040518060400160405280600981526020017fe5be85e5a484e7908600000000000000000000000000000000000000000000008152508160a001819052506000819080600181540180825580915050906001820390600052602060002090600602016000909192909190915060008201518160000160006101000a81548173ffffffffffffffffffffffffffffffffffffffff021916908373ffffffffffffffffffffffffffffffffffffffff16021790555060208201518160010160006101000a81548173ffffffffffffffffffffffffffffffffffffffff021916908373ffffffffffffffffffffffffffffffffffffffff160217905550604082015181600201556060820151816003019080519060200190610577929190610984565b506080820151816004019080519060200190610594929190610984565b5060a08201518160050190805190602001906105b1929190610984565b50505050505050505050565b6001811415610633576040518060400160405280601181526020017fe5b7b2e5a484e7908628e5908ce6848f290000000000000000000000000000008152506000838154811061060957fe5b9060005260206000209060060201600501908051906020019061062d929190610a04565b5061069c565b6040518060400160405280601181526020017fe5b7b2e5a484e7908628e68b92e7bb9d290000000000000000000000000000008152506000838154811061067657fe5b9060005260206000209060060201600501908051906020019061069a929190610a04565b505b5050565b60008060006060806000805490508610156108d557600086815481106106c257fe5b906000526020600020906006020160000160009054906101000a900473ffffffffffffffffffffffffffffffffffffffff166000878154811061070157fe5b906000526020600020906006020160010160009054906101000a900473ffffffffffffffffffffffffffffffffffffffff166000888154811061074057fe5b9060005260206000209060060201600201546000898154811061075f57fe5b906000526020600020906006020160030160008a8154811061077d57fe5b9060005260206000209060060201600501818054600181600116156101000203166002900480601f0160208091040260200160405190810160405280929190818152602001828054600181600116156101000203166002900480156108235780601f106107f857610100808354040283529160200191610823565b820191906000526020600020905b81548152906001019060200180831161080657829003601f168201915b50505050509150808054600181600116156101000203166002900480601f0160208091040260200160405190810160405280929190818152602001828054600181600116156101000203166002900480156108bf5780601f10610894576101008083540402835291602001916108bf565b820191906000526020600020905b8154815290600101906020018083116108a257829003601f168201915b505050505090509450945094509450945061090d565b333360008292508191508090506040518060200160405280600081525060405180602001604052806000815250945094509450945094505b91939590929450565b60008080549050905090565b6040518060c00160405280600073ffffffffffffffffffffffffffffffffffffffff168152602001600073ffffffffffffffffffffffffffffffffffffffff168152602001600081526020016060815260200160608152602001606081525090565b828054600181600116156101000203166002900490600052602060002090601f016020900481019282601f106109c557805160ff19168380011785556109f3565b828001600101855582156109f3579182015b828111156109f25782518255916020019190600101906109d7565b5b509050610a009190610a84565b5090565b828054600181600116156101000203166002900490600052602060002090601f016020900481019282601f10610a4557805160ff1916838001178555610a73565b82800160010185558215610a73579182015b82811115610a72578251825591602001919060010190610a57565b5b509050610a809190610a84565b5090565b610aa691905b80821115610aa2576000816000905550600101610a8a565b5090565b9056fea265627a7a723158208e4df60251501002f80ebd436c17a1454e5f079ddb5d695d047e0d08ebf175f764736f6c63430005100032",
  "source": "\r\npragma solidity ^0.5.16;\r\nimport \"./Split.sol\";\r\nimport \"./Message.sol\";\r\n\r\ncontract Vote\r\n{\r\n\r\n    struct activityItem\r\n    {\r\n        uint id;\r\n        string content;\r\n        uint number;\r\n    }\r\n    struct activity\r\n    {\r\n        uint id;//\r\n        string content;\r\n        address builder;\r\n        mapping(uint =>activityItem)item;\r\n        uint itemlength;\r\n        int mode;//01\r\n    }\r\n    struct power//\r\n    {\r\n        address userID;//\r\n        uint activityID;\r\n    }\r\n    struct voteRecord//\r\n    {\r\n        address userID;\r\n        uint activityID;//\r\n        uint voteItem;//-1\r\n    }\r\n    activity[] voteActivity;\r\n    power[] votePower;\r\n    voteRecord[] record;\r\n    Message m;\r\n    constructor() public{\r\n    m=new Message();\r\n}\r\n    function getActivitylength()public view returns(uint)\r\n    {\r\n        return voteActivity.length;\r\n\r\n    }\r\n    function getActivityItemlength(uint id) public view returns(uint)\r\n    {\r\n        return voteActivity[id].itemlength;\r\n\r\n    }\r\n    function createActivityItem(uint id,string memory content) private\r\n    {\r\n        activityItem memory temp;\r\n        temp.id=voteActivity[id].itemlength;\r\n        temp.content=content;\r\n        temp.number=0;\r\n        voteActivity[id].item[voteActivity[id].itemlength]=temp;\r\n        voteActivity[id].itemlength++;\r\n    }\r\n    function grantPower(address userID,uint activityID) public  returns(int sign) //\r\n    {\r\n\r\n\r\n        if(voteActivity[activityID].builder==msg.sender)\r\n        {\r\n            if(searchclass(activityID,userID)==3)\r\n            {\r\n                power memory temp;\r\n                temp.activityID=activityID;\r\n                temp.userID=userID;\r\n                votePower.push(temp);\r\n                sign=1;\r\n\r\n            }\r\n        }\r\n        sign=0;\r\n    }\r\n    function createRecord(address userID,uint activityID,uint number) private //\r\n    {\r\n        voteRecord  memory temp;\r\n        temp.activityID=activityID;\r\n        temp.userID=userID;\r\n        temp.voteItem=number;\r\n        record.push(temp);\r\n\r\n    }\r\n    function createActivity(string  memory content,int mode,string memory items) public  returns(uint) //\r\n    {\r\n\r\n        Split s=new Split();\r\n        activity  memory temp;\r\n        string memory  item1;\r\n        uint number=0;\r\n        temp.id=voteActivity.length;\r\n        temp.builder=msg.sender;\r\n        temp.content=content;\r\n        temp.mode=mode;\r\n        temp.itemlength=0;\r\n        voteActivity.push(temp);\r\n        while(number!=uint(-1))\r\n        {\r\n\r\n            (item1,number) =s.split(items,number);\r\n            if(number==uint(-1)) break;\r\n            createActivityItem(temp.id,item1);\r\n\r\n        }\r\n        return temp.id;\r\n    }\r\n    function vote(uint activityID,uint item) public//class=2,\r\n    {\r\n        //if(searchclass(activityID,msg.sender)==2)\r\n        //{\r\n            voteActivity[activityID].item[item].number++;\r\n            createRecord(msg.sender,activityID,item);\r\n           // sign=1;\r\n       // }\r\n        //sign=0;\r\n    }\r\n    function searchclass(uint activityID,address userID) public view returns(int)//searchAll\r\n    {\r\n        int class=-1;\r\n        if(activityID<voteActivity.length)\r\n        {\r\n            //class=0class=1,class=2class=3\r\n            if(voteActivity[activityID].builder==userID)  {class=0;}\r\n            else\r\n            {\r\n                if(searchRecordID(activityID,userID)==1)  {class=1;}\r\n                else\r\n                {\r\n                    if(searchPoweID(activityID,userID)==1) {class=2;}\r\n                    else {class=3;}\r\n\r\n                }\r\n\r\n\r\n            }\r\n        }\r\n        return class;\r\n    }\r\n    function searchAll(uint activityID) public view returns(uint,string memory,address,int)//activityID\r\n    {//id,\r\n\r\n        if(activityID<voteActivity.length)\r\n        {\r\n            return(voteActivity[activityID].id,voteActivity[activityID].content,voteActivity[activityID].builder,voteActivity[activityID].mode);\r\n        }\r\n        //\"\",\r\n        return (1,\"\",msg.sender,0);\r\n\r\n    }\r\n    function searchItem(uint activityID,uint xu) public view returns(uint,string memory,uint)//\r\n    {//\r\n        if(activityID<voteActivity.length)\r\n        {\r\n            return(voteActivity[activityID].item[xu].id,voteActivity[activityID].item[xu].content,voteActivity[activityID].item[xu].number);\r\n        }\r\n      return(0,\"\",0);\r\n    }\r\n\r\n    function searchPoweID(uint activityID,address userID) private  view returns(uint)//\r\n    {\r\n        if(voteActivity[activityID].mode==0) return 1;\r\n        for(uint i=0;i<votePower.length;i++)\r\n        {\r\n            if(votePower[i].activityID==activityID&&votePower[i].userID==userID)\r\n            {\r\n                return 1;\r\n            }\r\n        }\r\n        return 0;//\r\n    }\r\n    function searchRecordID(uint activityID,address userID) private view returns(uint)//id\r\n    {\r\n        for(uint i=0;i<record.length;i++)\r\n        {\r\n            if(record[i].activityID==activityID&&record[i].userID==userID)\r\n            {\r\n                return 1;\r\n            }\r\n        }\r\n        return 0;//\r\n    }\r\n\r\n    function create(address re,address sender,uint  contractID,string  memory content,string  memory class) public\r\n{\r\nreturn m.create(re,sender,contractID,content,class);\r\n}\r\nfunction getMessage(uint i) public view returns(address,address,uint,string memory,string memory  )\r\n{\r\nreturn m.getMessage(i);\r\n}\r\n\r\nfunction getMessageLength() public view returns(uint)\r\n{\r\n    return m.getMessageLength();\r\n}\r\nfunction setMessage(uint number,int sign) public\r\n{\r\n    return m.setMessage(number,sign);\r\n}\r\n\r\n    /* *\r\n        function searchBuilder(uint number) public view returns(uint,uint)//\r\n        {\r\n            //-1,\r\n            for(uint i=number;i<record.length;i++)\r\n            {\r\n                if(record[i].userID==msg.sender)\r\n                {\r\n                    number=i+1;\r\n                    return (record[i].voteItem,number);//id,\r\n                }\r\n            }\r\n            return (uint(-1),uint(-1));//\r\n        }\r\n        function searchRecords(uint number) public view returns(uint,uint)//\r\n        {//s\r\n            //,\r\n\r\n            for(uint i=number;i<record.length;i++)\r\n            {\r\n                if(record[i].userID==msg.sender)\r\n                {\r\n                    number=i+1;\r\n                    return (record[i].voteItem,number);//id,\r\n                }\r\n            }\r\n            return (uint(-1),uint(-1));//\r\n        }\r\n\r\n    * */\r\n\r\n\r\n\r\n\r\n\r\n\r\n\r\n}\r\n",
  "sourcePath": "E:/Vote/contracts/Vote.sol",
  "compiler": {
    "name": "solc",
    "version": "0.5.16+commit.9c3226ce.Emscripten.clang"
  },
  "schemaVersion": "3.3.2",
  "updatedAt": "2021-05-13T07:37:03.261Z",
  "networkType": "ethereum",
  "devdoc": {
    "methods": {}
  },
  "userdoc": {
    "methods": {}
  }
}